:1070000058C000008BC000006FC000006DC00000C1
:107010006BC0000069C0000067C0000065C00000D0
:1070200063C0000061C000005FC000005DC00000E0
:107030005BC0000059C0000057C0000055C00000F0
:1070400053C0000051C000004FC000004DC0000000
:107050004BC0000049C0000047C0000045C0000010
:1070600043C0000041C0000009021200010100807D
:107070003209040000000000000012011001FF00AE
:10708000000881179F0C0501010200011003550043
:1070900053004200740069006E0079001203410041
:1070A00064006100660072007500690074000403EA
:1070B000090411241FBECFEFD8E0DEBFCDBF11E021
:1070C000A0E0B1E0E4EAFBE702C005900D92A23037
:1070D000B107D9F712E0A2E0B1E001C01D92A234DD
:1070E000B107E1F7CFD45CC58BCFA82FB92F80E0D3
:1070F00090E041E050EA609530E009C02D91822790
:107100009795879510F084279527305EC8F36F5FB9
:10711000A8F30895EADF8D939D930895CF93CFB799
:10712000CF93C395189BE9F7189B09C0189B07C01C
:10713000189B05C0189B03C0189B01C0A1C0DF931A
:10714000C0912502DD27C45DDD4F189B02C0DF9191
:10715000EBCF2F930F931F9303B12FEF00FB20F979
:107160004F933F9313B14FEF012700FB21F93BE011
:1071700031C04E7F012F13B1216028C0102F4D7FE9
:107180002260000003B129C04B7F2460012F000062
:1071900013B12BC013B1477F28602AC04F7E03B1C3
:1071A00020612CC04F7D13B120622FC04F7B03B1F3
:1071B000206432C0422703B149934FEF00001027EB
:1071C00010FB20F913B11370C9F1297F91F2012747
:1071D00000FB21F903B1237F89F2315058F11027C8
:1071E00010FB22F913B1277E79F2012700FB23F966
:1071F0002F7C81F203B1102710FB24F92F7971F253
:1072000000C013B1012700FB25F92F7359F200C00C
:1072100003B1102710FB26F9223040F200C013B151
:10722000012700FB27F9243028F64F77206813B197
:107230000000F9CF11E01CBB002717C03B5031956F
:10724000C31BD04011E01CBB0881033CE9F00B34A8
:10725000D9F0209123021981110F1213EDCF0936B5
:1072600041F10D3211F0013E39F700932A023F91AE
:107270004F911F910F912F91DF91CCB3C0FD51CF52
:10728000CF91CFBFCF91189520912A02222379F375
:1072900010912802112311F5343012F13093280295
:1072A00020932402109125023BE0311B30932502EC
:1072B00017C00091280201308CF40AE530910001DA
:1072C00034FD10C000930001C8E1D2E00FC0279543
:1072D000A8F45150A9F4220F0000F9CF4AE503C0E9
:1072E00042ED01C0432FC4E1D0E032E014B113609D
:1072F000289A14B905B120E413E05F93012756E002
:1073000005B9279520F4515021F4220FF9CF012718
:1073100056E000003B5A05B9D0F2279528F45150A9
:1073200029F4220F0000F9CF012756E0279505B96F
:1073300020F4515021F4220FF9CF012756E0299172
:10734000332305B921F60C7F10912902110FC65184
:10735000D04005B911F01093230211E01CBB01606D
:1073600014B11C7F402F4C7F5F9100C000C005B955
:1073700014B945B97CCF809114018823A1F0F89409
:10738000E0911001F0911101329785E087BFE895F7
:10739000789407B600FCFDCFF89481E187BFE895AB
:1073A0007894109214010895CF92DF92EF92FF9299
:1073B0000F931F93CF93DF9380912802835087FD13
:1073C000C4C190912502CCE0D0E0C91BD1099CE258
:1073D000E92E92E0F92EEC0EFD1E11E0109304014F
:1073E000909124029D3209F046C1883009F0ABC16A
:1073F00083EC809318028AE58093000110920701C4
:10740000D7018C91807609F4BBC0109205012D9AAA
:10741000FE01E35DFD4F2081222309F4A9C0213044
:1074200009F4A8C0263021F4A6DF10930601A6C0F7
:10743000273009F080C09FDF88E091E09093270219
:1074400080932602FE01E15DFD4F908190930A0139
:10745000FE01E25DFD4F8081803351F4992309F0F4
:107460008BC0C05DDD4FE881F0E0EE0FFF1F5CC018
:10747000803599F4FE01E15DFD4F8081882329F577
:10748000C05DDD4F8881882309F076C089E0E0E0A7
:10749000F0E080935700849115C0883509F035C01D
:1074A000FE01E15DFD4F80818830F9F4C05DDD4F64
:1074B0008881882309F060C089E0E3E0F0E08093F0
:1074C0005700849180930B0157C0883009F054C055
:1074D000C05DDD4F8881882309F04EC089E0E2E07D
:1074E000F0E0809357008491EDCF882309F044C0E9
:1074F000C05DDD4F8881882309F03EC089E0E1E06E
:10750000F0E0809357008491DDCF8833A9F5FE0128
:10751000E15DFD4F8081882379F5C05DDD4F888175
:10752000882351F5E0E0F0E081E280935700E49198
:10753000E0930B0121C02E3011F41DDF1BC0283059
:1075400011F419DF1BC0F70184819581909311011B
:1075500080931001868180931201822F895084309C
:1075600068F4209313012A3009F477C104DF75C150
:1075700028E072C021E070C024E06EC020E06CC042
:10758000D70112969C9112971092210211968C911C
:107590001197882331F41092220281E292E022E0D6
:1075A00050C0853019F49093290241C08630B1F55E
:1075B000FE01E25DFD4F8081C15DDD4F988191301C
:1075C00019F48AE790E715C0923019F488E690E73D
:1075D00010C09330F1F4882341F48EEA90E7909341
:1075E00027028093260224E015C0813041F48CE903
:1075F00090E7909327028093260222E10BC082300D
:1076000041F48CE890E7909327028093260220E1D2
:1076100001C020E080E4809307011EC0883059F04B
:10762000893019F490932B0202C08A3039F081E23C
:1076300092E020E006C08BE292E002C081E292E09C
:1076400021E0909327028093260206C0F70126814D
:1076500080E8809307010CC0D70117968C9117978B
:10766000882331F416968C911697821708F4282FE8
:107670002093010168C09091070197FF64C0D091E9
:107680001201C82FD81708F4CD2FDC1BD09312019C
:10769000809113018C30B1F487010FC080911001EB
:1076A000909111019C012F5F3F4F30931101209366
:1076B0001001F80161918F0165D2802F8E198C170E
:1076C00068F33DC08A3009F03AC0670113E001E079
:1076D00031C080911001909111018F7790700097C7
:1076E00059F4F894E0911001F091110117BFE89559
:1076F000789407B600FCFDCF00931401F894E09154
:107700001001F0911101D6018D919D916D010C0137
:1077100007BFE89511247894809110019091110190
:10772000029690931101809310018F7790700097CB
:1077300009F421DE8C2D8E198C1708F4CACFDD23B5
:1077400011F410920101109228028091000184FF2F
:1077500079C0809101018F3F09F474C0C82F89302E
:1077600008F0C8E08C1B809301018091180298E812
:10777000892780931802CC2309F453C02091070174
:1077800027FF2CC0809112018C1708F4C82F8C1B86
:1077900080931201D0E009E112E01DC08091130135
:1077A000E0901001F09011018B3029F4C701E2D173
:1077B000F801808306C0893021F4F7018491D80153
:1077C0008C930F5F1F4F0894E11CF11CF092110184
:1077D000E0921001DF5FDC1709F721C080912602DB
:1077E0009091270226FF0AC0FC012C2FA9E1B2E0EC
:1077F00034913D9331962150D9F708C0DC012C2FEC
:10780000E9E1F2E03D9131932150E1F701962C2F0F
:107810002150820F911D9093270280932602C93038
:1078200058F489E192E06C2F75DCCC5FCC3041F0EC
:107830008FEF8093010104C08FEF80930101CEE1AF
:10784000C093000184E193B1937069F48150D9F73A
:10785000109229021092230206C0F701808187FD51
:10786000F5CE2FEFF5CEDF91CF911F910F91FF90C5
:10787000EF90DF90CF9008959091C00095FFFCCFDE
:107880008093C60008951D9A8091C00087FFFCCFA9
:107890008091C6001D9A0895F6DF803221F484E1BC
:1078A000EBDF80E0089581E00895CF93C82FEBDFF0
:1078B000C150E9F7F1DF882311F082E001C080E0D8
:1078C000CF910895EF92FF920F931F93CF93DF9381
:1078D0008091C00087FFBFC0D6DF813479F4D3DF49
:1078E000C82FDADF882309F0B8C0C23819F0C138D0
:1078F00019F485E0C1DFABC083E0FCCF823411F422
:1079000084E103C0853419F485E0CFDF9EC085355E
:1079100079F4B9DFC82FD0E0B6DF382F20E0C22BD2
:10792000D32BCC0FDD1FD0931601C09315018CC053
:10793000863531F484E0B9DF882309F08EC0DACFD0
:10794000843609F056C09FDF9EDF809317019BDFCE
:10795000009115011091160180E70030180720F4FE
:1079600083E0F80187BFE895C8E1D1E08CDF899317
:10797000809117018150809317018823B9F7F0E7B0
:1079800000301F0720F083E0F80187BFE89584DF0F
:10799000882309F062C007B600FCFDCF8091180172
:1079A000F80140E422273327201B310B51E0285EE9
:1079B0003E4F90E0D901AE0FBF1F1196FC9011977A
:1079C000EE248E299F290C0157BFE89511244150C0
:1079D00029F012968C9112973296EBCF85E0F80140
:1079E00087BFE89507B600FCFDCF81E187BFE8952A
:1079F0002EC08437D1F447DF46DF8093170143DF81
:107A00004BDF882351F5E0911501F0911601859126
:107A1000F0931601E09315012FDF8091170181503B
:107A200080931701882379F712C0853749F434DF32
:107A3000882399F48EE120DF85E91EDF8FE05ACF9D
:107A4000813511F429DF09C027DF882331F480E173
:107A500013DF81E003C080E001C082E0DF91CF91BD
:107A60001F910F91FF90EF90089582E08093C000E6
:107A700088E18093C10086E08093C2008CE080930F
:107A8000C400089584B7877F84BF88E10FB6F89457
:107A900080936000109260000FBE81E085BF82E09D
:107AA00085BF85E080938100259A8091690082607E
:107AB00080936900E89A209A8091840090918500D3
:107AC0002FE0803A9207C0F320987894CEDF6CDCE8
:107AD000F9DE813019F41092050102C0823009F1FB
:107AE000209105012630E8F4809106018823C9F42D
:107AF00080918400909185003DE2873C930738F0A7
:107B00002F5F209305011092850010928400209130
:107B100004012223E1F294FD02C02D9AD8CF2D98C2
:107B2000D6CF2D982598109285001092840001C020
:107B30003BDC80910601882341F080918400909184
:107B400085002FE0803A920798F3109281001092FE
:107B50008500109284001DBA1092690081E085BFF3
:107B600015BEF894E0910201F0910301099580E0BF
:107B700090E00895F999FECF92BD81BDF89A9927BA
:107B800080B50895262FF999FECF1FBA92BD81BD09
:107B900020BD0FB6F894FA9AF99A0FBE019608958F
:047BA000F894FFCF87
:027BA4005AFF86
:040000030000700089
:00000001FF
