:1070000058C000008BC000006FC000006DC00000C1
:107010006BC0000069C0000067C0000065C00000D0
:1070200063C0000061C000005FC000005DC00000E0
:107030005BC0000059C0000057C0000055C00000F0
:1070400053C0000051C000004FC000004DC0000000
:107050004BC0000049C0000047C0000045C0000010
:1070600043C0000041C0000009021200010100807D
:107070003209040000000000000012011001FF00AE
:10708000000881179F0C0501010200011003550043
:1070900053004200740069006E0079001203410041
:1070A00064006100660072007500690074000403EA
:1070B000090411241FBECFEFD8E0DEBFCDBF11E021
:1070C000A0E0B1E0E6E6F9E702C005900D92A2303B
:1070D000B107D9F711E0A2E0B1E001C01D92AF33D2
:1070E000B107E1F7B9D33DC48BCFA82FB92F80E00A
:1070F00090E041E050EA609530E009C02D91822790
:107100009795879510F084279527305EC8F36F5FB9
:10711000A8F30895EADF8D939D930895CF93CFB799
:10712000CF93C395189BE9F7189B09C0189B07C01C
:10713000189B05C0189B03C0189B01C0A1C0DF931A
:10714000C0912201DD27C75DDE4F189B02C0DF9191
:10715000EBCF2F930F931F9303B12FEF00FB20F979
:107160004F933F9313B14FEF012700FB21F93BE011
:1071700031C04E7F012F13B1216028C0102F4D7FE9
:107180002260000003B129C04B7F2460012F000062
:1071900013B12BC013B1477F28602AC04F7E03B1C3
:1071A00020612CC04F7D13B120622FC04F7B03B1F3
:1071B000206432C0422703B149934FEF00001027EB
:1071C00010FB20F913B11370C9F1297F91F2012747
:1071D00000FB21F903B1237F89F2315058F11027C8
:1071E00010FB22F913B1277E79F2012700FB23F966
:1071F0002F7C81F203B1102710FB24F92F7971F253
:1072000000C013B1012700FB25F92F7359F200C00C
:1072100003B1102710FB26F9223040F200C013B151
:10722000012700FB27F9243028F64F77206813B197
:107230000000F9CF11E01CBB002717C03B5031956F
:10724000C31BD04011E01CBB0881033CE9F00B34A8
:10725000D9F0209120011981110F1213EDCF0936B9
:1072600041F10D3211F0013E39F7009327013F91B2
:107270004F911F910F912F91DF91CCB3C0FD51CF52
:10728000CF91CFBFCF91189520912701222379F379
:1072900010912501112311F5343012F1309325019D
:1072A00020932101109122013BE0311B30932201F8
:1072B00017C00091250101308CF40AE530910001DE
:1072C00034FD10C000930001C5E1D1E00FC0279547
:1072D000A8F45150A9F4220F0000F9CF4AE503C0E9
:1072E00042ED01C0432FC4E1D0E032E014B113609D
:1072F000289A14B905B120E413E05F93012756E002
:1073000005B9279520F4515021F4220FF9CF012718
:1073100056E000003B5A05B9D0F2279528F45150A9
:1073200029F4220F0000F9CF012756E0279505B96F
:1073300020F4515021F4220FF9CF012756E0299172
:10734000332305B921F60C7F10912601110FC65188
:10735000D04005B911F01093200111E01CBB016071
:1073600014B11C7F402F4C7F5F9100C000C005B955
:1073700014B945B97CCF809114018823B1F0F894F9
:10738000E0911001F0911101329785E08093570050
:10739000E895789407B600FCFDCFF89481E18093DE
:1073A0005700E8957894109214010895CF92DF92D7
:1073B000EF92FF920F931F93CF93DF93809125015C
:1073C000835087FDB2C190912201CCE0D0E0C91B6F
:1073D000D10999E2E92E91E0F92EEC0EFD1E909173
:1073E00021019D3209F035C1883009F09CC183EC40
:1073F000809315018AE58093000110920701D7015F
:107400008C91807609F4AAC0109204012D9A11E0A3
:1074100010930601FE01E65DFE4F2081222309F450
:1074200095C0213009F494C0263021F4A4DF1093D4
:10743000050192C0273009F06CC09DDF88E091E023
:107440009093240180932301FE01E45DFE4F90811F
:1074500090930A01FE01E55DFE4F8081803351F477
:10746000992309F077C0C35DDE4FE881F0E0EE0FAD
:10747000FF1F4DC0803579F4FE01E45DFE4F808131
:10748000882301F5C35DDE4F8881882309F062C03F
:10749000E0E0F0E010C0883559F5FE01E45DFE4FF4
:1074A00080818830D9F4C35DDE4F8881882309F05C
:1074B00051C0E3E0F0E089E080935700E491E0936D
:1074C0000B0148C0883009F045C0C35DDE4F88819C
:1074D000882309F03FC0E2E0F0E0EDCF8823D1F54A
:1074E000C35DDE4F88818823A9F5E1E0F0E0E3CFBA
:1074F000883381F5FE01E45DFE4F8081882351F5DC
:10750000C35DDE4F8881882329F5E0E0F0E081E269
:10751000D3CF2E3011F42FDF1BC0283011F42BDF16
:107520001BC0F70184819581909311018093100114
:10753000868180931201822F8950843068F42093D1
:1075400013012A3009F479C116DF77C128E072C02F
:1075500021E070C024E06EC020E06CC0D70112961C
:107560009C91129710921E0111968C91119788236D
:1075700031F410921F018EE191E022E050C085307D
:1075800019F49093260141C08630B1F5FE01E55D06
:10759000FE4F8081C45DDE4F9881913019F48AE7F7
:1075A00090E715C0923019F488E690E710C0933048
:1075B000F1F4882341F48EEA90E7909324018093BC
:1075C000230124E015C0813041F48CE990E79093C9
:1075D00024018093230122E10BC0823041F48CE826
:1075E00090E7909324018093230120E101C020E0E3
:1075F00080E4809307011EC0883059F0893019F467
:107600009093280102C08A3039F08EE191E020E0A9
:1076100006C088E291E002C08EE191E021E0909303
:1076200024018093230106C0F701268180E880931E
:1076300007010CC0D70117968C911797882331F456
:1076400016968C911697821708F4282F2093010123
:107650006AC09091070197FF66C0D0911201C82FB0
:10766000D81708F4CD2FDC1BD093120180911301A1
:107670008C30B1F487010FC08091100190911101FD
:107680009C012F5F3F4F3093110120931001F801AF
:1076900061918F0158D1802F8E198C1768F33FC0EC
:1076A0008A3009F03CC0670113E001E033C08091EB
:1076B0001001909111018F779070009761F4F89408
:1076C000E0911001F091110110935700E895789422
:1076D00007B600FCFDCF00931401F894E09110016F
:1076E000F0911101D6018D919D916D010C010093D6
:1076F0005700E89511247894809110019091110120
:10770000029690931101809310018F7790700097EB
:1077100009F431DE8C2D8E198C1708F4C8CFDD23C7
:1077200011F410920101109225018091000184FF53
:1077300079C0809101018F3F09F474C0C82F89304E
:1077400008F0C8E08C1B809301018091150198E836
:10775000892780931501CC2309F453C02091070198
:1077600027FF2CC0809112018C1708F4C82F8C1BA6
:1077700080931201D0E006E111E01DC08091130159
:10778000E0901001F09011018B3029F4C701D3D0A3
:10779000F801808306C0893021F4F7018491D80173
:1077A0008C930F5F1F4F0894E11CF11CF0921101A4
:1077B000E0921001DF5FDC1709F721C080912301FF
:1077C0009091240126FF0AC0FC012C2FA6E1B1E014
:1077D00034913D9331962150D9F708C0DC012C2F0C
:1077E000E6E1F1E03D9131932150E1F701962C2F34
:1077F0002150820F911D9093240180932301C93061
:1078000058F486E191E06C2F85DCCC5FCC3041F000
:107810008FEF8093010104C08FEF80930101CEE1CF
:10782000C093000184E193B1937069F48150D9F75A
:10783000109226011092200106C0F701808187FD79
:10784000F3CE2FEFF3CEDF91CF911F910F91FF90E9
:10785000EF90DF90CF90089584B7877F84BF88E151
:107860000FB6F89480936000109260000FBE81E024
:1078700085BF82E085BF85E080938100259A809155
:107880006900826080936900E89A209A8091840060
:10789000909185002FE0803A9207C0F32098789469
:1078A00085DD209104012630E8F4809105018823CC
:1078B000C9F480918400909185003DE2873C930754
:1078C00038F02F5F209304011092850010928400FD
:1078D00020910601222321F394FD02C02D9AE0CFCE
:1078E0002D98DECF2D982598109285001092840057
:1078F00001C05CDD80910501882341F08091840006
:10790000909185002FE0803A920798F310928100C1
:1079100010928500109284001DBA1092690081E0D7
:1079200085BF15BEF894E0910201F091030109951D
:1079300080E090E00895F999FECF92BD81BDF89A5C
:10794000992780B50895262FF999FECF1FBA92BDC9
:1079500081BD20BD0FB6F894FA9AF99A0FBE019630
:067960000895F894FFCF2A
:027966005AFFC6
:040000030000700089
:00000001FF
