:1070000058C000008BC000006FC000006DC00000C1
:107010006BC0000069C0000067C0000065C00000D0
:1070200063C0000061C000005FC000005DC00000E0
:107030005BC0000059C0000057C0000055C00000F0
:1070400053C0000051C000004FC000004DC0000000
:107050004BC0000049C0000047C0000045C0000010
:1070600043C0000041C0000009021200010100807D
:107070003209040000000000000012011001FF00AE
:10708000000881179F0C0501010200011003550043
:1070900053004200740069006E0079001203410041
:1070A00064006100660072007500690074000403EA
:1070B000090411241FBECFEFD8E0DEBFCDBF11E021
:1070C000A0E0B1E0EAE1FCE702C005900D92A23039
:1070D000B107D9F712E0A2E0B1E001C01D92A334DC
:1070E000B107E1F7B7D497C58BCFA82FB92F80E0B0
:1070F00090E041E050EA609530E009C02D91822790
:107100009795879510F084279527305EC8F36F5FB9
:10711000A8F30895EADF8D939D930895CF93CFB799
:10712000CF93C3954F9BE9F74F9B09C04F9B07C077
:107130004F9B05C04F9B03C04F9B01C0A1C0DF9375
:10714000C0912602DD27C35DDD4F4F9B02C0DF915A
:10715000EBCF2F930F931F9309B12FEF07FB20F96C
:107160004F933F9319B14FEF012707FB21F93BE004
:1071700031C04E7F012F19B1216028C0102F4D7FE3
:107180002260000009B129C04B7F2460012F00005C
:1071900019B12BC019B1477F28602AC04F7E09B1B1
:1071A00020612CC04F7D19B120622FC04F7B09B1E7
:1071B000206432C0422709B149934FEF00001027E5
:1071C00017FB20F919B11478C9F1297F91F2012731
:1071D00007FB21F909B1237F89F2315058F11027BB
:1071E00017FB22F919B1277E79F2012707FB23F952
:1071F0002F7C81F209B1102717FB24F92F7971F246
:1072000000C019B1012707FB25F92F7359F200C0FF
:1072100009B1102717FB26F9223040F200C019B13E
:10722000012707FB27F9243028F64F77206819B18A
:107230000000F9CF11E01CBB002717C03B5031956F
:10724000C31BD04011E01CBB0881033CE9F00B34A8
:10725000D9F0209124021981110F1213EDCF0936B4
:1072600041F10D3211F0013E39F700932B023F91AD
:107270004F911F910F912F91DF91CCB3C0FD51CF52
:10728000CF91CFBFCF91189520912B02222379F374
:1072900010912902112311F5343012F13093290293
:1072A00020932502109126023BE0311B30932602E9
:1072B00017C00091290201308CF40AE530910001D9
:1072C00034FD10C000930001C9E1D2E00FC0279542
:1072D000A8F45150A9F4220F0000F9CF4AE503C0E9
:1072E00042ED01C0432FC4E1D0E032E01AB114688E
:1072F0005F9A1AB90BB120E414E85F93012756E0B6
:107300000BB9279520F4515021F4220FF9CF012712
:1073100056E000003B5A0BB9D0F2279528F45150A3
:1073200029F4220F0000F9CF012756E027950BB969
:1073300020F4515021F4220FF9CF012756E0299172
:1073400033230BB921F60B7710912A02110FC65186
:10735000D0400BB911F01093240211E01CBB00685F
:107360001AB11B77402F4B775F9100C000C00BB95B
:107370001AB94BB97CCF809115018823A1F0F894FC
:10738000E0911101F0911201329785E087BFE895F5
:10739000789407B600FCFDCFF89481E187BFE895AB
:1073A0007894109215010895AF92BF92CF92DF9218
:1073B000EF92FF920F931F93CF93DF931F92CDB75E
:1073C000DEB780912902835087FD96C190912602F5
:1073D0004CE0A42EB12CA91AB1082DE232E0A20E85
:1073E000B31E11E010930401909125029D3209F023
:1073F00013C1883009F07EC183EC809319028AE5BD
:107400008093000110920801D5018C91807609F4D7
:1074100091C0109206012D9A11962C91222309F405
:1074200003C2213009F402C2263021F4A4DF1093F4
:10743000070169C0273009F05FC09DDF89E091E056
:107440009093280280932702F501838180930B019A
:107450009281903339F4811114C0E481F0E0EE0F91
:10746000FF1F43C0903579F481111FC084818111C1
:1074700008C089E0E0E0F0E08093570084918093B9
:107480000C0124E0BEC0983539F5883019F0882306
:10749000C1F0F7CFF50184818111F3CF89E0E3E0FA
:1074A000F0E0809357008491EACF883051F78481CF
:1074B0008111E7CF89E0E2E0F0E08093570084910A
:1074C000DECFF50184818111DCCF89E0E1E0F0E0DD
:1074D000809357008491D3CF983399F68111D1CFFF
:1074E00084818111CECFE0E0F0E081E2809357000B
:1074F000E491E0930C01C5CF2E3011F43CDF96C12E
:10750000283019F438DF20E07CC0F50184819581B2
:107510009093120180931101868180931301822F31
:107520008950843080F7209314012A3009F476C101
:1075300022DF74C1D50112969C91129710922202FB
:1075400011968C91811106C01092230282E292E082
:1075500022E04BC0853019F490932A023CC086305B
:1075600089F5F5018381813019F48AE790E704C039
:10757000823041F488E690E79093280280932702B6
:1075800022E11CC08330C9F4911108C08EEA90E753
:10759000909328028093270224E010C0913019F4C0
:1075A0008CE990E7E9CF923041F48CE890E7909332
:1075B00028028093270220E101C020E080E480932C
:1075C00008011FC0883059F0893019F490932C02BB
:1075D00002C08A3039F082E292E020E006C08CE2FC
:1075E00092E002C082E292E021E090932802809330
:1075F000270207C0D50116962C9180E880930801D8
:1076000008C0F5018781811104C08681821708F4C2
:10761000282F209301016EC09091080197FF6AC046
:10762000F0901301E82EF81608F4EF2CFE18F092F3
:107630001301809114018C30B1F485010FC0D80181
:107640006D918D0180911101909112019C012F5F2C
:107650003F4F3093120120931101CFD2802F8A190E
:107660008E1568F343C08A3009F040C0850123E0DD
:10767000C22EDD24D39433C0809111019091120168
:107680008F779927892BF1F0D0921501F894E0912A
:107690001101F0911201D8018D919D918D010C0184
:1076A000D7BEE89511247894809111019091120130
:1076B000029690931201809311018F779927892B5D
:1076C00071F40CC0F894E0911101F0911201C7BE61
:1076D000E895789407B600FCFDCFD6CF4CDE802F1E
:1076E0008A198E1508F4C8CF10920501F11002C056
:1076F00010920101109229028091000184FF83C041
:10770000809101018F3F09F47EC0F82E893010F07E
:1077100098E0F92E8F19809301018091190298E861
:10772000892780931902FF2009F45BC0209108018A
:1077300027FF31C0809113018F1508F4F82E8F199F
:1077400080931301209114018AE1C82E82E0D82E83
:10775000EC2C1CC000911101109112012B3039F456
:10776000C801298342D2F6018083298106C02930CD
:1077700021F4F8018491D6018C93BFEFCB1ADB0A78
:107780000F5F1F4F10931201009311018C2D8E1962
:107790008F1500F323C0809127029091280226FFC5
:1077A0000BC0FC01AAE1B2E02F2D2A0F34913D93CA
:1077B00031962A13FBCF09C0DC01EAE1F2E02F2D5C
:1077C0002E0F3D9131932E13FCCF01962F2D21507A
:1077D000820F911D9093280280932702E8E0EF1515
:1077E00060F06F2D8AE192E095DC8F2D8C5F8C30FC
:1077F00041F09FEF9093010104C08FEF809301014E
:107800008EE18093000184E199B1947889F48150EC
:10781000D9F710922A02109224020AC0D5018C9145
:1078200087FDE8CE2FEFE9CE28E0EBCE21E0E9CED0
:107830000F90DF91CF911F910F91FF90EF90DF900C
:10784000CF90BF90AF9008959091C00095FFFCCF6E
:107850008093C60008951D9A8091C00087FFFCCFD9
:107860008091C6001D9A0895F6DF803221F484E1EC
:10787000EBDF80E0089581E00895CF93C82FEBDF20
:10788000C150E9F7F1DF882311F082E001C080E008
:10789000CF910895EF92FF920F931F93CF93DF93B1
:1078A0008091C00087FFC1C0D6DF813479F4D3DF77
:1078B000C82FDADF8111B1C0C23811F480E0A4C052
:1078C000C13811F485E0A0C083E09EC0823411F479
:1078D00084E103C0853429F485E0CFDF81119DC0A8
:1078E000A0C0853569F4B7DFC82FB5DF382F20E099
:1078F0002C2B220F331F30931701209316018FC0BA
:10790000863529F484E0B9DF811187C0D7CF84366A
:1079100009F054C0A0DF9FDF809318019CDFC09165
:107920001601D0911701C11560E7D60720F483E056
:10793000FE0187BFE89509E111E08DDFF801819331
:107940008F01809118018150809318018111F5CF2A
:10795000C115F0E7DF0720F083E0FE0187BFE8955F
:1079600083DF81115AC007B600FCFDCF20911901B9
:1079700080E090E041E0DC01A75EBE4FFC01EC0F2F
:10798000FD1F1196FC901197E12CB701622B9B0112
:10799000090147BFE89511248E37910521F0129611
:1079A0002C910296E8CF85E0FE0187BFE89507B6E7
:1079B00000FCFDCF81E187BFE89533C08437D1F467
:1079C0004ADF49DF8093180146DF4EDF811125C071
:1079D000E0911601F09117018591F0931701E09362
:1079E000160132DF809118018150809318018111B6
:1079F000EFCF17C0853751F437DF81110EC08EE10C
:107A000023DF85E921DF8FE01FDF0BC0813539F4EB
:107A10002BDF811102C080E117DF82E007C024DF85
:107A20005DCF80E111DF81E001C080E0DF91CF9187
:107A30001F910F91FF90EF90089582E08093C00016
:107A400088E18093C10086E08093C2008CE080933F
:107A5000C40008950F931F93CF93DF9384B7877F5C
:107A600084BF88E10FB6F8948093600010926000A4
:107A70000FBEE0E0F0E085919491019621F481E061
:107A80008093050102C01092050181E085BF82E06C
:107A900085BF85E080938100259A8091690082608E
:107AA00080936900E89A579A2D9A8091840090916A
:107AB0008500803A9F40C8F32D985798789481E0CC
:107AC00080938100BADF00E0C0E0D0E010E06CDC21
:107AD000E1DE813019F41092060107C0823029F4EA
:107AE00080910501882309F451C080910401882305
:107AF00049F0809106018B3028F0809105018823A0
:107B000009F444C080910401811108C080910601EC
:107B1000843020F0809105018823C1F18091070114
:107B2000811134C08091840090918500B09B1AC06F
:107B3000B09A20910401222361F02D9A209721F41C
:107B400021E0011120E0022F011102C0D25001C03A
:107B5000DE5F1F5F183B30F0209106012F5F2093FE
:107B6000060110E020910401222329F0C817D9074B
:107B700008F0ADCF09C0812F81508F3018F08052AE
:107B80008F3010F42D9AA3CF2D98A1CF2D98259842
:107B900085E080938100109285001092840001C0DE
:107BA00003DC80910701882339F080918400909153
:107BB0008500803A9F40A0F31092810010928500CA
:107BC000109284001DBA1092690081E085BF15BE35
:107BD000F894E0910201F0910301099580E090E0B2
:107BE000DF91CF911F910F910895F999FECF92BD2A
:107BF00081BDF89A992780B50895262FF999FECF6F
:107C00001FBA92BD81BD20BD0FB6F894FA9AF99AB9
:0A7C10000FBE01960895F894FFCF0F
:027C1A005AFF0F
:040000030000700089
:00000001FF
