:1070000058C000008BC000006FC000006DC00000C1
:107010006BC0000069C0000067C0000065C00000D0
:1070200063C0000061C000005FC000005DC00000E0
:107030005BC0000059C0000057C0000055C00000F0
:1070400053C0000051C000004FC000004DC0000000
:107050004BC0000049C0000047C0000045C0000010
:1070600043C0000041C0000009021200010100807D
:107070003209040000000000000012011001FF00AE
:10708000000881179F0C0501010200011003550043
:1070900053004200740069006E0079001203410041
:1070A00064006100660072007500690074000403EA
:1070B000090411241FBECFEFD8E0DEBFCDBF11E021
:1070C000A0E0B1E0E2ECFCE702C005900D92A23036
:1070D000B107D9F712E0A2E0B1E001C01D92A334DC
:1070E000B107E1F70ED5EBC58BCFA82FB92F80E004
:1070F00090E041E050EA609530E009C02D91822790
:107100009795879510F084279527305EC8F36F5FB9
:10711000A8F30895EADF8D939D930895CF93CFB799
:10712000CF93C3954F9BE9F74F9B09C04F9B07C077
:107130004F9B05C04F9B03C04F9B01C0A1C0DF9375
:10714000C0912602DD27C35DDD4F4F9B02C0DF915A
:10715000EBCF2F930F931F9309B12FEF07FB20F96C
:107160004F933F9319B14FEF012707FB21F93BE004
:1071700031C04E7F012F19B1216028C0102F4D7FE3
:107180002260000009B129C04B7F2460012F00005C
:1071900019B12BC019B1477F28602AC04F7E09B1B1
:1071A00020612CC04F7D19B120622FC04F7B09B1E7
:1071B000206432C0422709B149934FEF00001027E5
:1071C00017FB20F919B11478C9F1297F91F2012731
:1071D00007FB21F909B1237F89F2315058F11027BB
:1071E00017FB22F919B1277E79F2012707FB23F952
:1071F0002F7C81F209B1102717FB24F92F7971F246
:1072000000C019B1012707FB25F92F7359F200C0FF
:1072100009B1102717FB26F9223040F200C019B13E
:10722000012707FB27F9243028F64F77206819B18A
:107230000000F9CF11E01CBB002717C03B5031956F
:10724000C31BD04011E01CBB0881033CE9F00B34A8
:10725000D9F0209124021981110F1213EDCF0936B4
:1072600041F10D3211F0013E39F700932B023F91AD
:107270004F911F910F912F91DF91CCB3C0FD51CF52
:10728000CF91CFBFCF91189520912B02222379F374
:1072900010912902112311F5343012F13093290293
:1072A00020932502109126023BE0311B30932602E9
:1072B00017C00091290201308CF40AE530910001D9
:1072C00034FD10C000930001C9E1D2E00FC0279542
:1072D000A8F45150A9F4220F0000F9CF4AE503C0E9
:1072E00042ED01C0432FC4E1D0E032E01AB114688E
:1072F0005F9A1AB90BB120E414E85F93012756E0B6
:107300000BB9279520F4515021F4220FF9CF012712
:1073100056E000003B5A0BB9D0F2279528F45150A3
:1073200029F4220F0000F9CF012756E027950BB969
:1073300020F4515021F4220FF9CF012756E0299172
:1073400033230BB921F60B7710912A02110FC65186
:10735000D0400BB911F01093240211E01CBB00685F
:107360001AB11B77402F4B775F9100C000C00BB95B
:107370001AB94BB97CCF809115018823A1F0F894FC
:10738000E0911101F0911201329785E087BFE895F5
:10739000789407B600FCFDCFF89481E187BFE895AB
:1073A0007894109215010895CF92DF92EF92FF9298
:1073B0000F931F93CF93DF9380912902835087FD12
:1073C000FDC190912602CCE0D0E0C91BD1099DE21D
:1073D000E92E92E0F92EEC0EFD1E11E0109304014F
:1073E000909125029D3209F07DC1883009F0E4C1F9
:1073F00083EC809319028AE58093000110920801C2
:10740000D7018C91807609F4F8C0109206012D9A6C
:10741000FE01E25DFD4F2081222309F4EAC0213004
:1074200009F4E9C0263021F4A6DF10930701C6C095
:10743000273009F0BCC09FDF89E091E090932802DB
:1074400080932702FE01E05DFD4F908190930B0138
:10745000FE01E15DFD4F8081803351F4992309F0F5
:107460003BC2CF5CDD4FE881F0E0EE0FFF1F5EC056
:10747000803599F4FE01E05DFD4F8081882319F588
:10748000CF5CDD4F8881882309F026C289E0E0E0E7
:10749000F0E080935700849125C0883509F035C00D
:1074A000FE01E05DFD4F80818830F9F4CF5CDD4F57
:1074B0008881882309F010C289E0E3E0F0E080933E
:1074C000570084910FC0883009F006C2CF5CDD4FB1
:1074D0008881882309F000C289E0E2E0F0E080932F
:1074E0005700849180930C01F7C1882309F0F4C1FF
:1074F000CF5CDD4F8881882309F0EEC189E0E1E0AF
:10750000F0E0809357008491EDCF8833B1F4FE0111
:10751000E05DFD4F8081882309F0DEC1CF5CDD4F47
:107520008881882309F0D8C1E0E0F0E081E280930F
:107530005700E491E0930C01CFC18C3A09F0CCC123
:10754000FE01E05DFD4F8081803809F0C5C1FE017C
:10755000EF5CFD4F8081882309F0BEC1CE5CDD4F1A
:107560008881882309F0B8C1E0E0F0E083E007B645
:1075700000FCFDCFF89487BFE8957894E058FF4F62
:10758000B0E7E030FB0799F789E0E3E0F0E08093B3
:107590005700849183FFA0C1C0E0D0E0CE016FEF1F
:1075A0006ED32196E4E0C030DE07C1F795C12E30DE
:1075B00011F4E1DE20C0283019F4DDDE20E087C0C0
:1075C000D70114968D919C911597909312018093F9
:1075D000110116968C91169780931301822F895072
:1075E000843060F7209314012A3009F46FC1C3DEA0
:1075F0006DC128E06CC021E06AC0F7019281109251
:1076000022028181882331F41092230282E292E0E7
:1076100022E050C0853019F490932A0241C0863090
:10762000B1F5FE01E15DFD4F8081C05DDD4F9881C8
:10763000913019F48AE790E715C0923019F488E682
:1076400090E710C09330F1F4882341F48EEA90E77C
:10765000909328028093270224E015C0813041F4E2
:107660008CE990E7909328028093270222E10BC0D7
:10767000823041F48CE890E79093280280932702AF
:1076800020E101C020E080E48093080120C0883020
:1076900059F0893019F490932C0202C08A3039F0E5
:1076A00082E292E020E006C08CE292E002C082E238
:1076B00092E021E0909328028093270208C0D7012E
:1076C00016962C91169780E88093080108C0F70160
:1076D0008781882321F48681821708F4282F20933C
:1076E00001016AC09091080197FF66C0D091130113
:1076F000C82FD81708F4CD2FDC1BD093130180912D
:1077000014018C30B1F487010FC080911101909168
:1077100012019C012F5F3F4F309312012093110102
:10772000D8016D918D01BDD2802F8E198C1768F311
:107730003FC08A3009F03CC0670113E001E031C06E
:1077400080911101909112018F779070009759F4F8
:10775000F894E0911101F091120117BFE895789427
:1077600007B600FCFDCF00931501F894E0911101DC
:10777000F0911201D6018D919D916D010C0107BF11
:10778000E89511247894809111019091120102964C
:1077900090931201809311018F779070009709F4F4
:1077A000EADD8C2D8E198C1708F4CACF10920501D2
:1077B000DD2311F410920101109229028091000141
:1077C00084FF79C0809101018F3F09F474C0C82FF4
:1077D000893008F0C8E08C1B809301018091190268
:1077E00098E8892780931902CC2309F453C020918B
:1077F000080127FF2CC0809113018C1708F4C82FB3
:107800008C1B80931301D0E00AE112E01DC080912F
:107810001401E0901101F09012018B3029F4C7019E
:1078200026D2F801808306C0893021F4F7018491C3
:10783000D8018C930F5F1F4F0894E11CF11CF0924C
:107840001201E0921101DF5FDC1709F721C080917E
:1078500027029091280226FF0AC0FC012C2FAAE1E2
:10786000B2E034913D9331962150D9F708C0DC0144
:107870002C2FEAE1F2E03D9131932150E1F701969E
:107880002C2F2150820F911D909328028093270264
:10789000C93058F48AE192E06C2F3CDCCC5FCC30EC
:1078A00041F08FEF8093010104C08FEF80930101BD
:1078B000CEE1C093000184E199B1947879F48150CC
:1078C000D9F710922A021092240208C0F701808191
:1078D00087FDF5CE2FEFF7CE24E0F9CEDF91CF91E3
:1078E0001F910F91FF90EF90DF90CF9008959091AE
:1078F000C00095FFFCCF8093C60008951D9A80912B
:10790000C00087FFFCCF8091C6001D9A0895F6DF66
:10791000803221F484E1EBDF80E0089581E0089576
:10792000CF93C82FEBDFC150E9F7F1DF882311F0C7
:1079300082E001C080E0CF910895EF92FF920F9313
:107940001F93CF93DF938091C00087FFC3C0D6DF22
:10795000813479F4D3DFC82FDADF882309F0BCC083
:10796000C23819F0C13819F485E0C1DFAFC083E037
:10797000FCCF823411F484E103C0853419F485E02E
:10798000CFDFA2C0853579F4B9DFC82FD0E0B6DFEC
:10799000382F20E0C22BD32BCC0FDD1FD093170143
:1079A000C093160190C0863531F484E0B9DF882396
:1079B00009F092C0DACF843609F056C09FDF9EDF0F
:1079C000809318019BDF009116011091170180E749
:1079D0000030180720F483E0F80187BFE895C9E17B
:1079E000D1E08CDF89938091180181508093180138
:1079F0008823B9F7F0E700301F0720F083E0F80193
:107A000087BFE89584DF882309F066C007B600FCCD
:107A1000FDCF80911901F80140E422273327201B74
:107A2000310B51E0275E3E4F90E0D901AE0FBF1FF2
:107A30001196FC901197EE248E299F290C0157BFB7
:107A4000E8951124415029F012968C9112973296A4
:107A5000EBCF85E0F80187BFE89507B600FCFDCFC6
:107A600081E187BFE89532C08437D1F447DF46DF34
:107A70008093180143DF4BDF882371F5E0911601F5
:107A8000F09117018591F0931701E09316012FDF14
:107A900080911801815080931801882379F716C0CE
:107AA000853749F434DF8823B9F48EE120DF85E996
:107AB0001EDF8FE05ACF813531F429DF882361F44E
:107AC00080E115DF09C023DF882331F480E10FDF77
:107AD00081E003C080E001C082E0DF91CF911F917F
:107AE0000F91FF90EF90089582E08093C00088E1AD
:107AF0008093C10086E08093C2008CE08093C40034
:107B000008950F931F93CF93DF9384B7877F84BF2C
:107B100088E10FB6F89480936000109260000FBE69
:107B2000E0E0F0E0859194912FEF8F3F920721F4F0
:107B300081E08093050102C01092050181E085BFBC
:107B400082E085BF85E080938100259A809169005D
:107B5000826080936900E89A579A2D9A80918400F8
:107B6000909185002FE0803A9207C0F32D985798A6
:107B7000789481E080938100B7DF00E0C0E0D0E03E
:107B800010E012DCDADE813019F41092060106C032
:107B9000823021F4809105018823C9F1809106018A
:107BA000863020F080910501882389F180910701BA
:107BB000882369F58091840090918500B09B1CC05A
:107BC000B09A20910401222371F02D9A209721F47C
:107BD00021E0011120E0022F002319F4C050D2400F
:107BE00002C0C050DE4F1F5F183B30F020910601ED
:107BF0002F5F2093060110E020910401222309F455
:107C0000C0CFC817D90708F0BCCF2D98BACF2D9890
:107C1000259885E080938100109285001092840061
:107C200001C0C2DB80910701882341F0809184006C
:107C3000909185002FE0803A920798F3109281008E
:107C400010928500109284001DBA1092690081E0A4
:107C500085BF15BEF894E0910201F09103010995EA
:107C600080E090E0DF91CF911F910F910895F999F5
:107C7000FECF92BD81BDF89A992780B50895262F31
:107C8000F999FECF92BD81BDF89A019700B4021612
:107C900039F01FBA20BD0FB6F894FA9AF99A0FBEC0
:107CA0000895262FF999FECF1FBA92BD81BD20BD40
:107CB0000FB6F894FA9AF99A0FBE01960895F894BF
:027CC000FFCFF4
:027CC2005AFF67
:040000030000700089
:00000001FF
